:020000040000fa
:10000000f01f002061030000fb050000fd0500005b
:1000100000000000000000000000000000000000e0
:10002000000000000000000000000000f9050000d2
:100030000000000000000000f9050000f9050000c4
:10004000f9050000f9050000f9050000f9050000b8
:10005000f9050000f9050000f9050000f9050000a8
:10006000f9050000f9050000f9050000f905000098
:10007000f9050000f9050000f9050000f905000088
:10008000f9050000f9050000f9050000f905000078
:10009000f9050000f9050000f9050000f905000068
:1000a000f9050000f9050000f9050000f905000058
:1000b000f9050000f9050000f9050000f905000048
:1000c000f9050000f9050000cf040000f905000063
:1000d000f9050000f9050000f9050000f905000028
:1000e000f9050000f9050000f9050000f905000018
:0400f000f90500000e
:020000040000fa
:1000f400401801000200030084468ef30088744710
:10010400f8b5c046f8bc08bc9e467047e103000041
:10011400f8b5c046f8bc08bc9e467047b50300005d
:020000040000fa
:1001240041f20003c4f2000302221a7641f20043b2
:10013400c4f2000300221a7441f60043c4f200031f
:100144000632ff32c0f204025a6241f60042c4f29f
:100154000002082153681942fcd141f60043c4f25d
:10016400000380224121995041f60042c4f200026a
:100174008020013913581942fcd041f20003c4f223
:10018400000320225a631f321a6341f20002c4f2b0
:1001940000023c200421135c0b42fcd141f2000319
:1001a400c4f200032c220221995441f20002c4f249
:1001b40000023c20135c0b42fcd141f20002c4f269
:1001c400000240200321135c0b40032bfbd141f6ba
:1001d4000043c4f2000340f20712c0f202021a62a2
:1001e40041f60042c4f20002042153681942fcd1d2
:1001f40041f60043c4f20003b8224021995041f66d
:100204000042c4f20002b82013581942fcd07047cf
:020000040000fa
:1002140040f2000040f20002f0b5c646c2f200000f
:10022400c2f2000200b503000021904203d219700b
:1002340001339342fbd140f25442c0f200021368ee
:1002440054681900214340f20b0c40f203080026c5
:1002540081b1170091680c3779b91a191cb11e7055
:1002640001339342fbd13a001368546819002143c7
:100274000029eed104bc9046f0bd6146c91a1d198f
:1002840051182cb15a1c505c187013009542f9d1c6
:10029400434623405a1e9341a4081c19a4003f1945
:0402a4003a00e1e754
:020000040000fa
:1002a80010b582b048f200031c68002000f058f92d
:1002b800631c0ed084f3888848f204031b680193fa
:1002c800019c64086400200021002200230000f043
:1002d80017f940f2eb50c0f20000002100f07af963
:1002e80000f054f940f22802c2f2000243f2002161
:1002f800c4f20001802400201378002bfcd0cc61cc
:040308001070f9e791
:020000040000fa
:10030c0041f20003c4f2002301221a601203c4f26a
:10031c000022012113691942fcd141f20003c4f2fd
:10032c00002340f210721a6003221a7343f609522a
:10033c009a8333229a7240f21c02c2f2000200210c
:10034c00116001225a721203c4f200221369002bad
:04035c00fcd1704719
:020000040000fa
:1003600010b540f2ff53c0f20003984740f2ff532c
:10037000c0f200039847fff74dff40f20003c0f2c0
:1003800000037f2293434ef60052cef200029360a8
:1003900040f20543c0f20003984740f2ff53c0f219
:1003a0000003984740f2ff53c0f200039847fff75d
:0403b0007bfffee7ea
:020000040000fa
:1003b40010b540f20004c2f20004237863b940f29d
:1003c4000003c0f200032bb140f20000c0f20000b1
:1003d40000e000bf0123237010bdc04640f20003bb
:1003e400c0f2000310b54bb140f2040140f200002a
:1003f400c2f20001c0f2000000e000bf10bdc04620
:020000040000fa
:1004040070b500250e4c0f4be41aa410a54209d177
:100414000025fff775fe0c4c0c4be41aa410a54202
:1004240007d170bd074aab009b181b68984701357c
:10043400ece7064aab009b181b6898470135eee7ca
:100444001001000010010000140100001001000060
:020000040000fa
:10045400000000201c000000000000001c00002020
:100464000800000000000000280000200100000037
:100474000000000024000020040000000000000030
:100484000000000000000000222222222222222258
:020000040000fa
:1004940040f20043c4f2000300221a819a79012138
:1004a4000a439a719b7803221340022b0cd040f22a
:1004b4000043c4f20003013a9a705202c4f20002eb
:0a04c400012193790b42fcd0704730
:020000040000fa
:1004ce0010b541f20003c4f200235b7aa3b141f2ee
:1004de000003c4f20023987ac0b233229a7258b144
:1004ee0040f21c03c2f200031a682ab140f21c0348
:0a04fe00c2f200035968904710bdd8
:020000040000fa
:10050800e0b545464e465746e0b45d4620b425461c
:1005180026462746a046a146a246a346a44684f3fb
:100528000088a44720bcab46e0bcba46b146a84602
:02053800e0bd24
:020000040000fa
:02053a00704708
:020000040000fa
:10053c00bff35f8f62b64ef20013cef2000340f2af
:10054c0020301a5804491140c02212040a431a5090
:0c055c0004225a607047c046ffff00fff9
:020000040000fa
:1005680010b545f20003c4f2001304225a60fff7e5
:100578008dff00f01bf8fff7d1fd00f022f8fff720
:0c058800d8fffff7bffefff7d5ff10bd46
:020000040000fa
:1005940041f20003c4f200231a6802210a431a60dc
:1005a40041f20002c4f2002213691942fcd17047df
:020000040000fa
:1005b40043f20023c4f2000380221a600022472180
:0605c4005a54da6670478c
:020000040000fa
:1005ca0045f20003c4f2001302225a60013a1a7279
:0205da00704768
:020000040000fa
:0e05dc0040f21c03c2f2000318605960704721
:020000040000fa
:0e05ea0040f22803c2f2000301221a7070478b
:020000040000fa
:0205f800fee71c
:020000040000fa
:0205fa00fee71a
:020000040000fa
:0205fc00fee718
:020000040000fa
:0205fe00704744
:020000040000fa
:087e00007fe97fe9f8f776b98c
:020000040000fa
:0200000400807a
:044000007f438fb0bb
:020000040000fa
:0200000400807a
:04400400bbfcffff03
:020000040000fa
:0200000400807a
:0440080080d0f8c0ac
:020000040000fa
:0200000400807a
:04400c00ffffffffb4
:020000040000fa
:0200000400807a
:0440100000000000ac
:020000040000fa
:0200000400807a
:0440140002000000a6
:020000040000fa
:0200000400807a
:0440180000000000a4
:020000040000fa
:0200000400807a
:04401c001e65338466
:020000040000fa
:0200000400807a
:04c00000ff00c0a0dd
:020000040000fa
:0200000400807a
:04c0040000ffffff3b
:020000040000fa
:0200000400807a
:04c008004081e7ddaf
:020000040000fa
:0200000400807a
:04c01000ffffffff30
:020000040000fa
:0200000400807a
:04c01400ffffffff2c
:020000040000fa
:0200000400807a
:04c01800ffffffff28
:020000040000fa
:0200000400807a
:04c01c00ffffffff24
:020000040000fa
:0200000400807a
:04c02000ffffffff20
:020000040000fa
:0200000400807a
:04c02400ffffffff1c
:020000040000fa
:0200000400807a
:04c02800ffffffff18
:020000040000fa
:0200000400807a
:04c02c00ffffffff14
:020000040000fa
:0200000400807a
:04c03000ffffffff10
:020000040000fa
:0200000400807a
:04c03400ffffffff0c
:020000040000fa
:0200000400807a
:04c03800ffffffff08
:020000040000fa
:0200000400807a
:04c03c00ffffffff04
:020000040000fa
:0200000400807a
:04c04000ffffffff00
:020000040000fa
:0200000400807a
:04c04400fffffffffc
:020000040000fa
:0200000400807a
:04c04800fffffffff8
:020000040000fa
:0200000400807a
:04c04c00fffffffff4
:020000040000fa
:0200000400807a
:04c05000fffffffff0
:020000040000fa
:0200000400807a
:04c05400ffffffffec
:020000040000fa
:0200000400807a
:04c05800ffffffffe8
:020000040000fa
:0200000400807a
:04c05c00ffffffffe4
:020000040000fa
:0200000400807a
:04c06000ffffffffe0
:020000040000fa
:0200000400807a
:04c06400ffffffffdc
:020000040000fa
:0200000400807a
:04c06800ffffffffd8
:020000040000fa
:0200000400807a
:04c06c00ffffffffd4
:020000040000fa
:0200000400807a
:04c0e000ffffffff60
:020000040000fa
:0200000400807a
:04c0e400ffffffff5c
:020000040000fa
:0200000400807a
:04c0e800ffffffff58
:020000040000fa
:0200000400807a
:04c0ec00ffffffff54
:020000040000fa
:0200000400807a
:04c0f000ffffffff50
:020000040000fa
:0200000400807a
:04c0f400ffffffff4c
:020000040000fa
:0200000400807a
:04c0f800ffffffff48
:020000040000fa
:0200000400807a
:04c0fc00ffffffff44
:00000001FF
