:020000040000fa
:10800000f03f0020fd810000138400001584000073
:108010000000000000000000000000000000000060
:1080200000000000000000000000000011840000bb
:108030000000000000000000118400001184000016
:108040000000000000000000000000000000000030
:108050000000000000000000000000000000000020
:108060000000000000000000000000000000000010
:108070000000000000000000000000000000000000
:1080800000000000000000000000000000000000f0
:1080900000000000000000000000000000000000e0
:1080a00000000000000000000000000000000000d0
:1080b00000000000000000000000000000000000c0
:1080c00000000000000000003183000000000000fc
:1080d00000000000000000000000000000000000a0
:1080e0000000000000000000000000000000000090
:0480f000000000008c
:020000040000fa
:1080f400f8b5c046f8bc08bc9e4670477d820000b7
:10810400f8b5c046f8bc08bc9e46704751820000d2
:020000040000fa
:1081140042f2000042f20002f0b5c646c2f200008c
:10812400c2f2000200b503000021904203d219708c
:1081340001339342fbd148f2f022c0f200021368eb
:1081440054681900214340f20b0c40f20308002646
:1081540081b1170091680c3779b91a191cb11e70d6
:1081640001339342fbd13a00136854681900214348
:108174000029eed104bc9046f0bd6146c91a1d1910
:1081840051182cb15a1c505c187013009542f9d147
:10819400434623405a1e9341a4081c19a4003f19c6
:0481a4003a00e1e7d5
:020000040000fa
:1081a80041f20003c4f2002301221a601203c4f250
:1081b8000022012113691942fcd141f20003c4f2e3
:1081c800002340f210721a6003221a7343f6095210
:1081d8009a8333229a7242f21c02c2f200020021f0
:1081e800116001225a721203c4f200221369002b93
:0481f800fcd17047ff
:020000040000fa
:1081fc0010b548f21743c0f20003984748f21743f2
:10820c00c0f200039847fff77fff48f20003c0f26b
:10821c0000037f2293434ef60052cef2000293608d
:10822c0048f2a123c0f20003984748f21743c0f26a
:10823c000003984748f21743c0f20003984700f038
:04824c008ef8fee7c3
:020000040000fa
:1082500010b542f20004c2f20004237863b940f280
:108260000003c0f200032bb140f20000c0f2000096
:1082700000e000bf0123237010bdc04640f20003a0
:10828000c0f2000310b54bb142f2040140f200000d
:10829000c2f20001c0f2000000e000bf10bdc04605
:020000040000fa
:1082a00070b500250e4c0f4be41aa410a54209d15d
:1082b0000025fff71fff0c4c0c4be41aa410a5423d
:1082c00007d170bd074aab009b181b689847013562
:1082d000ece7064aab009b181b6898470135eee7b0
:1082e0000081000000810000048100000081000086
:020000040000fa
:1082f000002000201c000000000000001c200020c6
:1083000008000000000000002820002001000000fc
:1083100000000000242000200400000000000000f5
:10832000000000000000000022222222222222223d
:020000040000fa
:1083300010b541f20003c4f200235b7aa3b141f20d
:108340000003c4f20023987ac0b233229a7258b163
:1083500042f21c03c2f200031a682ab142f21c0363
:0a836000c2f200035968904710bdf7
:020000040000fa
:10836a0010b5002000f049f848f2f730c0f20000da
:10837a00002100f034f800f022f842f22802c2f29a
:10838a00000243f20001c4f20001802400201378a5
:0a839a00002bfcd0cc611070f9e755
:020000040000fa
:1083a4004ef20013cef2000340f220301a58044972
:1083b4001140c02212040a431a5004225a60704722
:0483c400ffff00ffb8
:020000040000fa
:1083c80041f20003c4f200231a6802210a431a602a
:1083d80041f20002c4f2002213691942fcd170472d
:020000040000fa
:0e83e80042f21c03c2f2000318605960704795
:020000040000fa
:0e83f60042f22803c2f2000301221a707047ff
:020000040000fa
:0c84040010b5fff7cffefff7cbff10bd57
:020000040000fa
:02841000fee785
:020000040000fa
:02841200fee783
:020000040000fa
:02841400fee781
:020000040000fa
:028416007047ad
:00000001FF
