:020000040000fa
:10000000f81f0020a9020000cf040000d104000066
:1000100000000000000000000000000000000000e0
:10002000000000000000000000000000cd040000ff
:100030000000000000000000cd040000cd0400001e
:10004000cd040000cd040000cd040000cd0400006c
:10005000cd040000cd040000cd040000cd0400005c
:10006000cd040000cd040000cd040000cd0400004c
:10007000cd040000cd040000cd040000cd0400003c
:10008000cd040000cd040000cd040000cd0400002c
:10009000cd040000cd040000cd040000cd0400001c
:1000a000cd040000cd040000cd040000cd0400000c
:1000b000cd040000cd040000cd040000cd040000fc
:1000c000cd040000cd04000000000000cd040000bd
:1000d000cd040000cd040000cd040000cd040000dc
:1000e000cd040000cd040000cd040000cd040000cc
:0400f000cd0400003b
:020000040000fa
:1000f400401801000200030084468ef30088744710
:10010400f8b5c046f8bc08bc9e46704729030000f9
:10011400f8b5c046f8bc08bc9e467047fd02000016
:020000040000fa
:1001240041f20003c4f2000302221a7641f20043b2
:10013400c4f2000300221a7441f60043c4f200031f
:100144000632ff32c0f204025a6241f60042c4f29f
:100154000002082153681942fcd141f60043c4f25d
:10016400000380224121995041f60042c4f200026a
:100174008020013913581942fcd041f20003c4f223
:10018400000320225a631f321a6341f20002c4f2b0
:1001940000023c200421135c0b42fcd141f2000319
:1001a400c4f200032c220221995441f20002c4f249
:1001b40000023c20135c0b42fcd141f20002c4f269
:1001c400000240200321135c0b40032bfbd141f6ba
:1001d4000043c4f2000340f20712c0f202021a62a2
:1001e40041f60042c4f20002042153681942fcd1d2
:1001f40041f60043c4f20003b8224021995041f66d
:100204000042c4f20002b82013581942fcd07047cf
:020000040000fa
:1002140040f2000040f20002f0b5c646c2f200000f
:10022400c2f2000200b503000021904203d219700b
:1002340001339342fbd140f26442c0f200021368de
:1002440054681900214340f20b0c40f203080026c5
:1002540081b1170091680c3779b91a191cb11e7055
:1002640001339342fbd13a001368546819002143c7
:100274000029eed104bc9046f0bd6146c91a1d198f
:1002840051182cb15a1c505c187013009542f9d1c6
:10029400434623405a1e9341a4081c19a4003f1945
:0402a4003a00e1e754
:020000040000fa
:1002a80010b540f2d343c0f20003984740f2d3435d
:1002b800c0f200039847fff7a9ff40f20003c0f21d
:1002c80000037f2293434ef60052cef20002936061
:1002d80040f24d33c0f20003984740f2d343c0f2d6
:1002e8000003984740f2d343c0f20003984700f058
:0402f8006ef8fee7b7
:020000040000fa
:1002fc0010b540f20004c2f20004237863b940f256
:10030c000003c0f200032bb140f20000c0f2000069
:10031c0000e000bf0123237010bdc04640f2000373
:10032c00c0f2000310b54bb140f2040140f20000e2
:10033c00c2f20001c0f2000000e000bf10bdc046d8
:020000040000fa
:10034c0070b500250e4c0f4be41aa410a54209d130
:10035c000025fff7d1fe0c4c0c4be41aa410a5425f
:10036c0007d170bd074aab009b181b689847013535
:10037c00ece7064aab009b181b6898470135eee783
:10038c001001000010010000140100001001000019
:020000040000fa
:10039c0040f20043c4f2000300221a819a79012131
:1003ac000a439a719b7803221340022b0cd040f223
:1003bc000043c4f20003013a9a705202c4f20002e4
:0a03cc00012193790b42fcd0704729
:020000040000fa
:1003d60010b582b048f200031c68002000f02bf82c
:1003e600631c0ed084f3888848f204031b680193cb
:1003f600019c64086400200021002200230000f014
:0404060001f8fee714
:020000040000fa
:10040a00e0b545464e465746e0b45d4620b425461b
:10041a0026462746a046a146a246a346a44684f3fa
:10042a000088a44720bcab46e0bcba46b146a84601
:02043a00e0bd23
:020000040000fa
:10043c0010b545f20003c4f2001304225a60fff712
:10044c00a7ff00f028f8fff767fe00f02ff800f088
:08045c0036f800f011f810bda4
:020000040000fa
:10046400000000201c000000000000001c00002010
:100474000400000000000000000000000000000074
:020000040000fa
:10048400bff35f8f62b64ef20013cef2000340f268
:0e049400842299580420014399509b587047c8
:020000040000fa
:1004a20043f20023c4f2000380221a604721002095
:0604b2005854da667047a1
:020000040000fa
:1004b80045f20003c4f2001302225a60013a1a728c
:0204c80070477b
:020000040000fa
:0204ca00704779
:020000040000fa
:0204cc00fee749
:020000040000fa
:0204ce00fee747
:020000040000fa
:0204d000fee745
:020000040000fa
:0204d200704771
:020000040000fa
:087e00007fe97fe9f8f776b98c
:020000040000fa
:0200000400807a
:044000007f438fb0bb
:020000040000fa
:0200000400807a
:04400400bbfcffff03
:020000040000fa
:0200000400807a
:0440080080d0f8c0ac
:020000040000fa
:0200000400807a
:04400c00ffffffffb4
:020000040000fa
:0200000400807a
:0440100000000000ac
:020000040000fa
:0200000400807a
:0440140002000000a6
:020000040000fa
:0200000400807a
:044018001000000094
:020000040000fa
:0200000400807a
:04401c001e65338466
:020000040000fa
:0200000400807a
:04c00000ff00c0a0dd
:020000040000fa
:0200000400807a
:04c0040000ffffff3b
:020000040000fa
:0200000400807a
:04c008004081e7ddaf
:020000040000fa
:0200000400807a
:04c01000ffffffff30
:020000040000fa
:0200000400807a
:04c01400ffffffff2c
:020000040000fa
:0200000400807a
:04c01800ffffffff28
:020000040000fa
:0200000400807a
:04c01c00ffffffff24
:020000040000fa
:0200000400807a
:04c02000ffffffff20
:020000040000fa
:0200000400807a
:04c02400ffffffff1c
:020000040000fa
:0200000400807a
:04c02800ffffffff18
:020000040000fa
:0200000400807a
:04c02c00ffffffff14
:020000040000fa
:0200000400807a
:04c03000ffffffff10
:020000040000fa
:0200000400807a
:04c03400ffffffff0c
:020000040000fa
:0200000400807a
:04c03800ffffffff08
:020000040000fa
:0200000400807a
:04c03c00ffffffff04
:020000040000fa
:0200000400807a
:04c04000ffffffff00
:020000040000fa
:0200000400807a
:04c04400fffffffffc
:020000040000fa
:0200000400807a
:04c04800fffffffff8
:020000040000fa
:0200000400807a
:04c04c00fffffffff4
:020000040000fa
:0200000400807a
:04c05000fffffffff0
:020000040000fa
:0200000400807a
:04c05400ffffffffec
:020000040000fa
:0200000400807a
:04c05800ffffffffe8
:020000040000fa
:0200000400807a
:04c05c00ffffffffe4
:020000040000fa
:0200000400807a
:04c06000ffffffffe0
:020000040000fa
:0200000400807a
:04c06400ffffffffdc
:020000040000fa
:0200000400807a
:04c06800ffffffffd8
:020000040000fa
:0200000400807a
:04c06c00ffffffffd4
:020000040000fa
:0200000400807a
:04c0e000ffffffff60
:020000040000fa
:0200000400807a
:04c0e400ffffffff5c
:020000040000fa
:0200000400807a
:04c0e800ffffffff58
:020000040000fa
:0200000400807a
:04c0ec00ffffffff54
:020000040000fa
:0200000400807a
:04c0f000ffffffff50
:020000040000fa
:0200000400807a
:04c0f400ffffffff4c
:020000040000fa
:0200000400807a
:04c0f800ffffffff48
:020000040000fa
:0200000400807a
:04c0fc00ffffffff44
:00000001FF
