:10000000F01F002069030000170600001906000019
:1000100000000000000000000000000000000000E0
:1000200000000000000000000000000015060000B5
:10003000000000000000000015060000150600008A
:100040001506000015060000150600001506000044
:100050001506000015060000150600001506000034
:100060001506000015060000150600001506000024
:100070001506000015060000150600001506000014
:100080001506000015060000150600001506000004
:1000900015060000150600001506000015060000F4
:1000A00015060000150600001506000015060000E4
:1000B00015060000150600001506000015060000D4
:1000C0001506000015060000EB04000015060000F0
:1000D00015060000150600001506000015060000B4
:1000E00015060000150600001506000015060000A4
:1000F00015060000401801000200030084468EF33C
:1001000000887447F8B5C046F8BC08BC9E467047E6
:100110003D040000F8B5C046F8BC08BC9E467047D8
:100120001104000041F20003C4F2000302221A7617
:1001300041F20043C4F2000300221A7441F6004366
:10014000C4F200030632FF32C0F204025A6241F6E2
:100150000042C4F20002082153681942FCD141F662
:100160000043C4F2000380224121995041F600422D
:10017000C4F200028020013913581942FCD041F228
:100180000003C4F2000320225A631F321A6341F2B3
:100190000002C4F200023C200421135C0B42FCD19B
:1001A00041F20003C4F200032C220221995441F2CF
:1001B0000002C4F200023C20135C0B42FCD141F26D
:1001C0000002C4F2000240200321135C0B40032B09
:1001D000FBD141F60043C4F2000340F20712C0F223
:1001E00002021A6241F60042C4F20002042153687E
:1001F0001942FCD141F60043C4F20003B822402169
:10020000995041F60042C4F20002B8201358194236
:10021000FCD0704740F2000040F20002F0B5C64644
:10022000C2F20000C2F2000200B5030000219042B9
:1002300003D2197001339342FBD140F26042C0F205
:100240000002136854681900214340F20B0C40F27D
:100250000308002681B1170091680C3779B91A1983
:100260001CB11E7001339342FBD13A0013685468ED
:10027000190021430029EED104BC9046F0BD61462F
:10028000C91A1D1951182CB15A1C505C1870130052
:100290009542F9D1434623405A1E9341A4081C19A4
:1002A000A4003F193A00E1E710B582B048F200031C
:1002B0001C68002000F04FF9631C0ED084F388887E
:1002C00048F204031B680193019C64086400200049
:1002D00021002200230000F025F940F2F950C0F27D
:1002E0000000002100F08FF900F062F940F27C027A
:1002F000C2F2000243F20021C4F200018024002077
:100300001378002BFCD0CC611070F9E700230E4A63
:1003100010B513600D4A0E4C13600E4A13600E4A5E
:1003200013600E4A13600E4A5362136101339360E7
:1003300000F074F900F072F90A4B9C4200D310BD32
:1003400008CC9847F8E7C046780000200C00002051
:100350001001000008000020000000200400002020
:10036000100000201401000010B540F21B63C0F221
:100370000003984740F21B63C0F200039847FFF761
:1003800049FF40F20003C0F200037F2293434EF680
:100390000052CEF20002936040F20D33C0F200032F
:1003A000984740F21B63C0F20003984740F21B637A
:1003B000C0F200039847FFF777FFFEE741F2000322
:1003C000C4F2002301221A601203C4F200220121A8
:1003D00013691942FCD141F20003C4F2002340F238
:1003E00010721A6003221A7343F609529A83332259
:1003F0009A7240F26C02C2F20002002111600122E6
:100400005A721203C4F200221369002BFCD1704708
:1004100010B540F25004C2F20004237863B940F2F0
:100420000003C0F200032BB140F20000C0F2000054
:1004300000E000BF0123237010BDC04640F200035E
:10044000C0F2000310B54BB140F2540140F200007D
:10045000C2F20001C0F2000000E000BF10BDC046C3
:10046000500000201C000000000000007C00002064
:1004700001000000000000006C00002008000000E7
:1004800000000000740000200400000000000000D4
:100490000000002050000000000000007800002054
:1004A0000400000000000000000000000000000048
:1004B00040F20043C4F2000300221A819A7901211C
:1004C0000A439A719B7803221340022B0CD040F20E
:1004D0000043C4F20003013A9A705202C4F20002CF
:1004E000012193790B42FCD0704710B541F2000313
:1004F000C4F200235B7AA3B141F20003C4F20023EB
:10050000987AC0B233229A7258B140F26C03C2F2A8
:1005100000031A682AB140F26C03C2F20003596862
:10052000904710BDE0B545464E465746E0B45D469F
:1005300020B4254626462746A046A146A246A34605
:10054000A44684F30088A44720BCAB46E0BCBA466E
:10055000B146A846E0BD10B545F20003C4F2001351
:1005600004225A60FFF7A4FF00F032F8FFF7DAFD2B
:1005700000F039F800F005F8FFF720FF00F002F86E
:1005800010BD7047BFF35F8F62B64EF20013CEF21C
:10059000000340F220301A5804491140C0221204CE
:1005A0000A431A5004225A607047C046FFFF00FFFA
:1005B00041F20003C4F200231A6802210A431A60C0
:1005C00041F20002C4F2002213691942FCD17047C3
:1005D00043F20023C4F2000380221A600022472164
:1005E0005A54DA66704745F20003C4F2001302223F
:1005F0005A60013A1A72704740F27C03C2F200035B
:1006000001221A70704740F26C03C2F200031860B6
:0E06100059607047FEE7FEE7FEE7704770474F
:087E00007FE97FE9F8F776B98C
:10800000F03F002005820000FD820000FF8200009A
:108010000000000000000000000000000000000060
:10802000000000000000000000000000FB820000D3
:108030000000000000000000FB820000FB82000046
:108040000000000000000000000000000000000030
:108050000000000000000000000000000000000020
:108060000000000000000000000000000000000010
:108070000000000000000000000000000000000000
:1080800000000000000000000000000000000000F0
:1080900000000000000000000000000000000000E0
:1080A00000000000000000000000000000000000D0
:1080B00000000000000000000000000000000000C0
:1080C00000000000000000000000000000000000B0
:1080D00000000000000000000000000000000000A0
:1080E0000000000000000000000000000000000090
:1080F00000000000F8B5C046F8BC08BC9E467047BA
:1081000085820000F8B5C046F8BC08BC9E467047A2
:108110005982000042F2000042F20002F0B5C64669
:10812000C2F20000C2F2000200B50300002190423A
:1081300003D2197001339342FBD148F2A822C0F256
:108140000002136854681900214340F20B0C40F2FE
:108150000308002681B1170091680C3779B91A1904
:108160001CB11E7001339342FBD13A00136854686E
:10817000190021430029EED104BC9046F0BD6146B0
:10818000C91A1D1951182CB15A1C505C18701300D3
:108190009542F9D1434623405A1E9341A4081C1925
:1081A000A4003F193A00E1E700230E4A10B513601E
:1081B0000D4A0E4C13600E4A13600E4A13600E4AAD
:1081C00013600E4A536213610133936000F09AF812
:1081D00000F098F80A4B9C4200D310BD08CC984799
:1081E000F8E7C046702000200C200020008100002D
:1081F0000820002000200020042000201020002063
:108200000481000010B548F20333C0F20003984720
:1082100048F20333C0F200039847FFF77BFF48F2B0
:108220000003C0F200037F2293434EF60052CEF2C9
:108230000002936048F2A913C0F20003984748F285
:108240000333C0F20003984748F20333C0F200033F
:10825000984700F049F8FEE710B542F25004C2F228
:108260000004237863B940F20003C0F200032BB18D
:1082700040F20000C0F2000000E000BF01232370C4
:1082800010BDC04640F20003C0F2000310B54BB170
:1082900042F2540140F20000C2F20001C0F20000BC
:1082A00000E000BF10BDC046502000201C000000B0
:1082B000000000006C20002004000000000000000E
:1082C000002000205000000000000000702000206E
:1082D000040000000000000000000000000000009A
:1082E000222222222222222210B5002000F001F8B0
:1082F000FEE710B500F004F810BDFEE7FEE7FEE76C
:0683000070477047704752
:0200000400807A
:104000007F438FB0BBFCFFFF80D0F8C0FFFFFFFFF6
:104010000000000002000000000000001E65338464
:0CC00000FF00C0A000FFFFFF4081E7DD53
:10C01000FFFFFFFFFFFFFFFFFFFFFFFFFFFFFFFF30
:10C02000FFFFFFFFFFFFFFFFFFFFFFFFFFFFFFFF20
:10C03000FFFFFFFFFFFFFFFFFFFFFFFFFFFFFFFF10
:10C04000FFFFFFFFFFFFFFFFFFFFFFFFFFFFFFFF00
:10C05000FFFFFFFFFFFFFFFFFFFFFFFFFFFFFFFFF0
:10C06000FFFFFFFFFFFFFFFFFFFFFFFFFFFFFFFFE0
:10C0E000FFFFFFFFFFFFFFFFFFFFFFFFFFFFFFFF60
:10C0F000FFFFFFFFFFFFFFFFFFFFFFFFFFFFFFFF50
:00000001FF
