:020000040000fa
:10800000f03f002005820000fd820000ff8200009a
:108010000000000000000000000000000000000060
:10802000000000000000000000000000fb820000d3
:108030000000000000000000fb820000fb82000046
:108040000000000000000000000000000000000030
:108050000000000000000000000000000000000020
:108060000000000000000000000000000000000010
:108070000000000000000000000000000000000000
:1080800000000000000000000000000000000000f0
:1080900000000000000000000000000000000000e0
:1080a00000000000000000000000000000000000d0
:1080b00000000000000000000000000000000000c0
:1080c00000000000000000000000000000000000b0
:1080d00000000000000000000000000000000000a0
:1080e0000000000000000000000000000000000090
:0480f000000000008c
:020000040000fa
:1080f400f8b5c046f8bc08bc9e46704785820000af
:10810400f8b5c046f8bc08bc9e46704759820000ca
:020000040000fa
:1081140042f2000042f20002f0b5c646c2f200008c
:10812400c2f2000200b503000021904203d219708c
:1081340001339342fbd148f2a822c0f20002136833
:1081440054681900214340f20b0c40f20308002646
:1081540081b1170091680c3779b91a191cb11e70d6
:1081640001339342fbd13a00136854681900214348
:108174000029eed104bc9046f0bd6146c91a1d1910
:1081840051182cb15a1c505c187013009542f9d147
:10819400434623405a1e9341a4081c19a4003f19c6
:0481a4003a00e1e7d5
:020000040000fa
:1081a80000230e4a10b513600d4a0e4c13600e4a98
:1081b80013600e4a13600e4a13600e4a536213612d
:1081c8000133936000f09af800f098f80a4b9c424b
:1081d80000d310bd08cc9847f8e7c04670200020af
:1081e8000c20002000810000082000200020002032
:0c81f80004200020102000200481000062
:020000040000fa
:1082040010b548f20333c0f20003984748f2033331
:10821400c0f200039847fff77bff48f20003c0f267
:1082240000037f2293434ef60052cef20002936085
:1082340048f2a913c0f20003984748f20333c0f28e
:108244000003984748f20333c0f20003984700f054
:0482540049f8fee700
:020000040000fa
:1082580010b542f25004c2f20004237863b940f228
:108268000003c0f200032bb140f20000c0f200008e
:1082780000e000bf0123237010bdc04640f2000398
:10828800c0f2000310b54bb142f2540140f20000b5
:10829800c2f20001c0f2000000e000bf10bdc046fd
:020000040000fa
:1082a800502000201c000000000000006c2000206e
:1082b8000400000000000000002000205000000022
:1082c80000000000702000200400000000000000f2
:1082d8000000000000000000222222222222222286
:020000040000fa
:0a82e80010b5002000f001f8fee7d9
:020000040000fa
:0882f20010b500f004f810bd06
:020000040000fa
:0282fa00fee79d
:020000040000fa
:0282fc00fee79b
:020000040000fa
:0282fe00fee799
:020000040000fa
:028300007047c4
:020000040000fa
:028302007047c2
:020000040000fa
:028304007047c0
:00000001FF
